:020000040800F2
:1000000000000220E1C20008496F0008856F000867
:10001000996F00089D6F0008A16F000800000000A4
:10002000000000000000000000000000F14B00088C
:10003000A56F000800000000814C0008A96F0008AF
:1000400035C3000835C3000835C3000835C30008B0
:1000500035C3000835C300088971000835C300089E
:100060009171000899710008A1710008AD6F000836
:1000700035C30008B96F000835C30008C56F000814
:10008000D16F000835C3000899700008DD6F0008C3
:10009000E96F0008F56F000801700008A9710008F9
:1000A00035C300084971000835C3000835C300088E
:1000B00035C3000835C3000835C300087171000856
:1000C0007D71000835C3000835C3000835C300083A
:1000D00035C3000835C3000835C3000835C3000820
:1000E000D171000835C3000835C3000835C30008C6
:1000F0005D7100080D70000835C3000835C30008A5
:1001000035C3000835C300082D71000829700008A8
:100110003570000835C3000835C3000835C3000832
:1001200035C3000835C3000835C3000835C30008CF
:1001300035C30008000000000000000035C30008BF
:1001400035C3000835C3000835C3000841700008F6
:1001500035C3000835C3000835C3000835C300089F
:1001600035C3000835C3000835C3000835C300088F
:1001700035C3000835C3000800000000000000007F
:0801800035C3000835C3000877
:1001900010B5054C237833B9044B13B10448AFF3C1
:1001A00000800123237010BD08060020000000001D
:1001B000549E020808B5034B1BB103490348AFF333
:1001C000008008BD000000000C060020549E0208BC
:1001D00010F8012B11F8013B012A28BF9A42F7D0F1
:1001E000D01A7047034613F8012B002AFBD1181AC6
:1001F000013870470000000000000000000000000F
:1002000001F0FF01102A2BDB10F0070F08D010F8C7
:10021000013B013A8B422DD010F0070F42B3F6D1CB
:10022000F0B441EA012141EA014122F007047FF0E4
:1002300000070023F0E80256083C85EA010586EA3B
:10024000010685FA47F5A3FA87F586FA47F6A5FA77
:1002500087F68EB9EED1F0BC01F0FF0102F0070283
:1002600032B110F8013B013A83EA010313B1F8D12E
:100270000020704701387047002D06BF354603380F
:10028000073815F0010F07D1013015F4807F02BF48
:10029000013015F4C03F0130F0BC0138704700BF99
:1002A00081F0004102E000BF83F0004330B54FEA27
:1002B00041044FEA430594EA050F08BF90EA020F94
:1002C0001FBF54EA000C55EA020C7FEA645C7FEA27
:1002D000655C00F0E2804FEA5454D4EB5555B8BF4A
:1002E0006D420CDD2C4480EA020281EA030382EABB
:1002F000000083EA010180EA020281EA0303362D4D
:1003000088BF30BD11F0004F4FEA01314FF4801C1F
:100310004CEA113102D0404261EB410113F0004F31
:100320004FEA03334CEA133302D0524263EB4303E8
:1003300094EA050F00F0A780A4F10104D5F1200E86
:100340000DDB02FA0EFC22FA05F2801841F10001E1
:1003500003FA0EF2801843FA05F359410EE0A5F1B5
:1003600020050EF1200E012A03FA0EFC28BF4CF0E6
:10037000020C43FA05F3C01851EBE37101F000459C
:1003800007D54FF0000EDCF1000C7EEB00006EEBA9
:100390000101B1F5801F1BD3B1F5001F0CD3490833
:1003A0005FEA30004FEA3C0C04F101044FEA44528A
:1003B00012F5800F80F09A80BCF1004F08BF5FEA11
:1003C000500C50F1000041EB045141EA050130BDF1
:1003D0005FEA4C0C404141EB0101013C28BFB1F503
:1003E000801FE9D291F0000F04BF01460020B1FA4E
:1003F00081F308BF2033A3F10B03B3F120020CDA21
:100400000C3208DD02F1140CC2F10C0201FA0CF0FE
:1004100021FA02F10CE002F11402D8BFC2F1200C63
:1004200001FA02F120FA0CFCDCBF41EA0C01904019
:10043000E41AA2BF01EB0451294330BD6FEA040462
:100440001F3C1CDA0C340EDC04F11404C4F120024D
:1004500020FA04F001FA02F340EA030021FA04F35F
:1004600045EA030130BDC4F10C04C4F1200220FAB6
:1004700002F001FA04F340EA0300294630BD21FAF4
:1004800004F0294630BD94F0000F83F4801306BFBA
:1004900081F480110134013D4EE77FEA645C18BFAE
:1004A0007FEA655C29D094EA050F08BF90EA020F45
:1004B00005D054EA000C04BF1946104630BD91EA3D
:1004C000030F1EBF0021002030BD5FEA545C05D140
:1004D0004000494128BF41F0004130BD14F580047F
:1004E0003CBF01F5801130BD01F0004545F0FE41F3
:1004F00041F470014FF0000030BD7FEA645C1ABF28
:10050000194610467FEA655C1CBF0B46024650EA5E
:10051000013406BF52EA033591EA030F41F400218A
:1005200030BD00BF90F0000F04BF0021704730B510
:100530004FF4806404F132044FF000054FF00001E5
:1005400050E700BF90F0000F04BF0021704730B5A6
:100550004FF4806404F1320410F0004548BF40427B
:100560004FF000013EE700BF42004FEAE2014FEAD0
:1005700031014FEA02701FBF12F07F4393F07F4FAB
:1005800081F06051704732F07F4208BF704793F0AE
:100590007F4F04BF41F40021704730B54FF46074C1
:1005A00001F0004521F000411CE700BF50EA0102C4
:1005B00008BF704730B54FF000050AE050EA01026D
:1005C00008BF704730B511F0004502D5404261EBDD
:1005D00041014FF4806404F132045FEA915C3FF41E
:1005E000D8AE4FF003025FEADC0C18BF03325FEABB
:1005F000DC0C18BF033202EBDC02C2F1200300FA6C
:1006000003FC20FA02F001FA03FE40EA0E0021FA90
:1006100002F11444BDE600BF70B54FF0FF0C4CF47E
:10062000E06C1CEA11541DBF1CEA135594EA0C0F30
:1006300095EA0C0F00F0DEF82C4481EA030621EA6B
:100640004C5123EA4C5350EA013518BF52EA0335A6
:1006500041F4801143F4801338D0A0FB02CE4FF058
:100660000005E1FB02E506F00042E0FB03E54FF088
:100670000006E1FB03569CF0000F18BF4EF0010E80
:10068000A4F1FF04B6F5007F64F5407404D25FEA7C
:100690004E0E6D4146EB060642EAC62141EA55512F
:1006A0004FEAC52040EA5E504FEACE2EB4F1FD0C71
:1006B00088BFBCF5E06F1ED8BEF1004F08BF5FEAEF
:1006C000500E50F1000041EB045170BD06F00046A1
:1006D00046EA010140EA020081EA0301B4EB5C044E
:1006E000C2BFD4EB0C0541EA045170BD41F4801146
:1006F0004FF0000E013C00F3AB8014F1360FDEBF6B
:10070000002001F0004170BDC4F10004203C35DA46
:100710000C341BDC04F11404C4F1200500FA05F3C9
:1007200020FA04F001FA05F240EA020001F000426A
:1007300021F0004110EBD37021FA04F642EB0601E0
:100740005EEA430E08BF20EAD37070BDC4F10C040A
:10075000C4F1200500FA04F320FA05F001FA04F2CE
:1007600040EA020001F0004110EBD37041F10001BA
:100770005EEA430E08BF20EAD37070BDC4F12005C5
:1007800000FA05F24EEA020E20FA04F301FA05F22D
:1007900043EA020321FA04F001F0004121FA04F2D5
:1007A00020EA020000EBD3705EEA430E08BF20EAA5
:1007B000D37070BD94F0000F0FD101F000464000DF
:1007C00041EB010111F4801F08BF013CF7D041EA61
:1007D000060195F0000F18BF704703F00046520065
:1007E00043EB030313F4801F08BF013DF7D043EA36
:1007F0000603704794EA0C0F0CEA135518BF95EAEC
:100800000C0F0CD050EA410618BF52EA4306D1D172
:1008100081EA030101F000414FF0000070BD50EA91
:10082000410606BF1046194652EA430619D094EA1B
:100830000C0F02D150EA013613D195EA0C0F05D105
:1008400052EA03361CBF104619460AD181EA030159
:1008500001F0004141F0FE4141F470014FF0000011
:1008600070BD41F0FE4141F4780170BD70B54FF0AC
:10087000FF0C4CF4E06C1CEA11541DBF1CEA13552C
:1008800094EA0C0F95EA0C0F00F0A7F8A4EB05040E
:1008900081EA030E52EA03354FEA013100F0888005
:1008A0004FEA03334FF0805545EA131343EA1263CE
:1008B0004FEA022245EA111545EA10654FEA002683
:1008C0000EF000419D4208BF964244F1FD0404F53C
:1008D000407402D25B084FEA3202B61A65EB030598
:1008E0005B084FEA32024FF480104FF4002CB6EB55
:1008F000020E75EB030E22BFB61A754640EA0C00D5
:100900005B084FEA3202B6EB020E75EB030E22BF14
:10091000B61A754640EA5C005B084FEA3202B6EB55
:10092000020E75EB030E22BFB61A754640EA9C0014
:100930005B084FEA3202B6EB020E75EB030E22BFE4
:10094000B61A754640EADC0055EA060E18D04FEAA2
:10095000051545EA16754FEA06164FEAC30343EA42
:1009600052734FEAC2025FEA1C1CC0D111F4801F0F
:100970000BD141EA00014FF000004FF0004CB6E708
:1009800011F4801F04BF01430020B4F1FD0C88BFA7
:10099000BCF5E06F3FF6AFAEB5EB030C04BFB6EBB2
:1009A000020C5FEA500C50F1000041EB045170BDA5
:1009B0000EF0004E4EEA113114EB5C04C2BFD4EBD2
:1009C0000C0541EA045170BD41F480114FF0000E56
:1009D000013C90E645EA060E8DE60CEA135594EAD2
:1009E0000C0F08BF95EA0C0F3FF43BAF94EA0C0FD5
:1009F0000AD150EA01347FF434AF95EA0C0F7FF44A
:100A000025AF104619462CE795EA0C0F06D152EA9D
:100A100003353FF4FDAE1046194622E750EA410681
:100A200018BF52EA43067FF4C5AE50EA41047FF492
:100A30000DAF52EA43057FF4EBAE12E74FF0FF3CF7
:100A400006E000BF4FF0010C02E000BF4FF0010CC8
:100A50004DF804CD4FEA410C7FEA6C5C4FEA430C41
:100A600018BF7FEA6C5C1BD001B050EA410C0CBF90
:100A700052EA430C91EA030F02BF90EA020F0020F2
:100A8000704710F1000F91EA030F58BF994208BF59
:100A900090422CBFD8176FEAE37040F00100704716
:100AA0004FEA410C7FEA6C5C02D150EA013C07D16D
:100AB0004FEA430C7FEA6C5CD6D152EA033CD3D0B8
:100AC0005DF8040B704700BF8446104662468C46B2
:100AD0001946634600E000BF01B5FFF7B7FF0028E5
:100AE00048BF10F1000F01BD4DF808EDFFF7F4FF0E
:100AF0000CBF012000205DF808FB00BF4DF808ED99
:100B0000FFF7EAFF34BF012000205DF808FB00BFBB
:100B10004DF808EDFFF7E0FF94BF012000205DF8DD
:100B200008FB00BF4DF808EDFFF7CEFF94BF012092
:100B300000205DF808FB00BF4DF808EDFFF7C4FF8B
:100B400034BF012000205DF808FB00BF4FEA410CD4
:100B50007FEA6C5C02D150EA013C0AD14FEA430CB7
:100B60007FEA6C5C02D152EA033C02D14FF00000F4
:100B700070474FF0010070474FEA410212F5001232
:100B800015D211D56FF47873B3EB625212D94FEAD4
:100B9000C12343F0004343EA505311F0004F23FABE
:100BA00002F018BF404270474FF00000704750EA13
:100BB000013005D111F0004008BF6FF000407047D0
:100BC0004FF00000704700BF4A0011D212F500122A
:100BD00011D20DD56FF47873B3EB62520ED44FEA95
:100BE000C12343F0004343EA505323FA02F0704715
:100BF0004FF00000704750EA013002D14FF0FF3053
:100C000070474FF0000070474FEA4102B2F1E043F5
:100C100024BFB3F5001CDCF1FE5C0DD901F0004CE3
:100C20004FEAC0024CEA5070B2F1004F40EB830033
:100C300008BF20F00100704711F0804F21D113F15F
:100C40003872BCBF01F00040704741F480114FEA98
:100C50005252C2F11802C2F1200C10FA0CF320FA21
:100C600002F018BF40F001004FEAC1234FEAD3233E
:100C700003FA0CFC40EA0C0023FA02F34FEA4303A8
:100C8000CCE77FEA625307D150EA01331EBF4FF031
:100C9000FE4040F44000704701F0004040F0FE404C
:100CA00040F40000704700BF7BB972B90029BEBF95
:100CB00000204FF0004106E008BF00281CBF6FF085
:100CC00000414FF0FF3001F05FB9ADF1080C6DE964
:100CD00004CE002909DB002B1ADB00F083F8DDF8D5
:100CE00004E0DDE9022304B07047404261EB4101BA
:100CF000002B1BDB00F076F8DDF804E0DDE90223D1
:100D000004B0404261EB4101524263EB4303704740
:100D1000524263EB430300F065F8DDF804E0DDE9DF
:100D2000022304B0404261EB41017047524263EB41
:100D3000430300F057F8DDF804E0DDE9022304B0D6
:100D4000524263EB4303704753B94AB9002908BFC5
:100D500000281CBF4FF0FF314FF0FF3001F014B9F5
:100D6000ADF1080C6DE904CE00F03CF8DDF804E0CC
:100D7000DDE9022304B0704738B5002200230446A1
:100D80000D46FFF7BBFE28B920462946BDE838408E
:100D900000F00AB8204605F1004100F005F8404295
:100DA00061EB410138BD00BFD0B50C4B00220646B7
:100DB0000F46FFF731FCFFF707FF0446FFF7B2FBD2
:100DC000074B0022FFF728FC02460B463046394607
:100DD000FFF76AFAFFF7F8FE2146D0BD0000F03DAC
:100DE0000000F0412DE9F047089D04468E46002B97
:100DF0004DD18A42944669D9B2FA82F252B101FACF
:100E000002F3C2F1200120FA01F10CFA02FC41EADE
:100E1000030E94404FEA1C48210CBEFBF8F61FFA63
:100E20008CF708FB16E341EA034306FB07F19942FE
:100E30000AD91CEB030306F1FF3080F01F819942B1
:100E400040F21C81023E63445B1AA4B2B3FBF8F08B
:100E500008FB103344EA034400FB07F7A7420AD912
:100E60001CEB040400F1FF3380F00A81A74240F23A
:100E700007816444023840EA0640E41B00261DB1A5
:100E8000D4400023C5E900433146BDE8F0878B42DA
:100E900009D9002D00F0EF800026C5E90001304699
:100EA0003146BDE8F087B3FA83F6002E4AD18B4273
:100EB00002D3824200F2F980841A61EB030301201D
:100EC0009E46002DE0D0C5E9004EDDE702B9FFDE09
:100ED000B2FA82F2002A40F09280A1EB0C014FEAB4
:100EE0001C471FFA8CFE0126200CB1FBF7F307FB11
:100EF000131140EA01410EFB03F0884208D91CEBB4
:100F0000010103F1FF3802D2884200F2CB80434650
:100F1000091AA4B2B1FBF7F007FB101144EA01442F
:100F20000EFB00FEA64508D91CEB040400F1FF31BE
:100F300002D2A64500F2BB800846A4EB0E0440EAAC
:100F400003409CE7C6F12007B34022FA07FC4CEAB5
:100F5000030C20FA07F401FA06F31C43F9404FEAA8
:100F60001C4900FA06F3B1FBF9F8200C1FFA8CFEBD
:100F700009FB181140EA014108FB0EF0884202FA11
:100F800006F20BD91CEB010108F1FF3A80F08880D2
:100F9000884240F28580A8F102086144091AA4B28F
:100FA000B1FBF9F009FB101144EA014100FB0EFE10
:100FB0008E4508D91CEB010100F1FF346CD28E453F
:100FC0006AD90238614440EA0840A0FB0294A1EBD0
:100FD0000E01A142C846A64656D353D05DB1B3EB2D
:100FE000080261EB0E0101FA07F722FA06F3F1405D
:100FF0001F43C5E9007100263146BDE8F087C2F104
:101000002003D8400CFA02FC21FA03F3914001437B
:101010004FEA1C471FFA8CFEB3FBF7F007FB1036B4
:101020000B0C43EA064300FB0EF69E4204FA02F460
:1010300008D91CEB030300F1FF382FD29E422DD9B3
:10104000023863449B1B89B2B3FBF7F607FB1633E8
:1010500041EA034106FB0EF38B4208D91CEB010168
:1010600006F1FF3816D28B4214D9023E6144C91AE8
:1010700046EA004638E72E46284605E70646E3E6F8
:101080001846F8E64B45A9D2B9EB020864EB0C0E02
:101090000138A3E74646EAE7204694E74046D1E711
:1010A000D0467BE7023B614432E7304609E76444BF
:1010B000023842E703685A004CBF43F0004323F074
:1010C00000431844704700BF2DE9F84329B34F1E71
:1010D000044615463E464FF0000808EB060101EBBA
:1010E000D171491004EBC1094846FFF7E3FF0346FD
:1010F000C80008308F42204409D0AB4209D8FFF71E
:10110000D9FF0138A8420AD201F10108E5E7AB4254
:1011100005D9884501D04E1EDFE74FF0000948464B
:10112000BDE8F883012807D0022807D0044B002827
:101130000CBF1846002070470248704702487047AD
:10114000FD170008011800080518000830B5234BEA
:1011500083B004468D1E3BB301A92846AFF300803F
:10116000E8B101992A46FFF7AFFF0146B8B1FFF792
:10117000A1FF4B68A064012B2CD0002B01F10400CF
:1011800024DBFFF797FF0023C4E913030368002B58
:1011900011DBFFF78FFF2061002003B030BD00237B
:1011A0000920236103B030BD0D4B0E49C91AC91087
:1011B00018460191D6E7C3F30360FFF7B3FF002899
:1011C000206114BF0020092003B030BD0123C4E911
:1011D0001303DBE7002323610520DEE700000000A6
:1011E0004C870308049103080368DA0710B5044626
:1011F00006D49B0700F1480009D500F05BFC23688A
:10120000590709D51A070ED5DB0613D510BD00F016
:1012100049FC23685907F5D404F1D00000F052FCD2
:1012200023681A07F0D404F5A87000F053FC236873
:10123000DB06EBD404F5E870BDE8104000F08EBC8E
:10124000092070470346006800B11844704700BF8A
:10125000704700BF70B504460E46316C2046FFF75C
:1012600075FF054688B9326C6261236932462146B2
:10127000012098470828F0D0072806D12846316C6D
:10128000FFF7E6FF301D00F001FC23F063FC00BF18
:101290002DE9F0470D1DD0F80C80D0F818900746C6
:1012A00014460FCDADF5727D0DF10C0CACE80F00BE
:1012B0000FCDACE80F000FCDACE80F0095E80F00A4
:1012C00002AE4FF0000E8CE80F00C6F800E020E000
:1012D000336C7B614FF4F07231467AA823F0ACFC9A
:1012E0003B697AAA394650469847889B73642146E1
:1012F000CDE9006905463B463A460120C047044611
:10130000E0B94FF4F0727AA9304623F095FC082D2D
:101310001AD1316C3846FFF719FF09345FFA84FAA5
:1013200005460028D4D0B36B73643A46CDE9006912
:101330003B464AF010010120C04700B1092528466C
:101340000DF5727DBDE8F087072DF7D12046316C91
:10135000FFF77EFF03A800F099FB00BF406C7047C9
:10136000F0B5CB6B0B6401F1040C0E460546BCE8EE
:101370000F00F9B001AC0FC4BCE80F000FC4BCE80B
:101380000F000FC49CE80F004FF0FF3784E80F00F8
:10139000009706E02B696A462946984708280446C4
:1013A00008D110992846FFF7D1FE0028F2D0092075
:1013B00079B0F0BD6846FFF717FF062CF7D131462C
:1013C0002846FFF747FF00BFC160D96B82611964EF
:1013D000002219465CE700BF70B5C66843690B641C
:1013E000AEB903690A4604460D46014602209847F5
:1013F000072805D008280FD129462046FFF72AFFE5
:101400003046296CFFF724FF281D00F03FFB012226
:10141000FFF73EFF23F09EFB23F09CFBC2681AB14E
:10142000CA6B0A64002233E79AE700BF704700BF27
:10143000836801460BB1012018477047012912D07B
:1014400009D873B90F2A0CD800EB820218465368EA
:10145000009A136070470339012994BF01200220CC
:101460007047022070470846704700BF00B585B03E
:101470000A46002303A900911946FFF7DFFF0398EE
:1014800005B05DF804FB00BF012912D009D873B97B
:101490000F2A0CD800EB8200009A126842601846AE
:1014A00070470339012994BF0120022070470220B0
:1014B00070470846704700BF10B584B0002303ACE6
:1014C000039200940A461946FFF7DEFF04B010BDF0
:1014D00070B5D36B136402F1040C05460C46BCE8EE
:1014E0000F00ADF50E7D0DF15C0EAEE80F00BCE80F
:1014F0000F00AEE80F00BCE80F00AEE80F009CE85C
:101500000F004FF0FF368EE80F00169610E0FFF741
:10151000D3FF214616A8A847034616AA6946082005
:1015200083B9049B9847052806460CD0092809D0A2
:1015300026996846FFF70AFE03466A460C2116A85C
:10154000002BE4D0092616A8FFF74EFE30460DF515
:101550000E7D70BD2DE9F04FCC6C89B01E4654F85D
:10156000043B06940D46174600F00308002E79D080
:101570001A0C1B0405938DF81D200223D2B204EB34
:1015800082048DF81C302B6DB8F1020F08BFAC6BD4
:1015900013F001030CD005A9384600F079FB18B907
:1015A000082009B0BDE8F08F092009B0BDE8F08F30
:1015B000D4F800A0BAF1000FEDD0019300F00803B9
:1015C0000293022E4AD0B4F800A0B4F8029004347A
:1015D000AB6C29F0010B0F2138469B44FFF746FF07
:1015E000834539D82AF001039B44834594BF0020EA
:1015F00001204FEA490303F002030AF0010A43EA1B
:101600000A03012B49D0022B32D0002BCCD1B8F1E8
:10161000000F02D0002840F0CD800434D4F800A0A0
:10162000BAF1000FCDD105A9384600F031FB0028F2
:10163000BAD1019B002BB3D00F213846FFF716FF1C
:101640000E2102463846FFF737FF38466A4A0F2117
:10165000FFF732FF0720A8E70020CAE7D4F804907C
:101660000834B5E71B0205930323ADF81C308AE765
:10167000236823F0004BB8F1000F45D128B1029A3E
:10168000002A5CD0BBF1000F74D0002B00DA0434C8
:101690000BF1010B04EB8B04C0E7B8F1000F19D17B
:1016A000B0B163682268991C4FEAD2723FF47CAFF4
:1016B00005F158010133049100F09080201DFFF7DF
:1016C000C1FD04AB0146284622F03CFA00285BD15C
:1016D0000834A3E70D213846D5F82090FFF7C6FE61
:1016E0008145F5D1AB6A9C42F2D12046FFF7E2FC7E
:1016F0000F2102463846FFF7DFFE38462A46002112
:10170000FFF7DAFE072050E70D213846D5F8209084
:10171000FFF7ACFE814501D02368B6E7AB6A9C4277
:10172000FAD104230022C5E90B23E318C5F828B039
:101730006B632368002B59DB01230193A8E705F1B4
:101740005803CDF80C8004F1040AB04691461E46B9
:101750000EE050460496FFF775FD0022014604ABEB
:10176000284609F101090AF1040A22F0EBF9E0B96F
:10177000D945EED10D213846FFF778FE049BAC62C7
:10178000C5E90803062010E781460D213846FFF71A
:101790006DFEB9F1020F286225D12B46049A43F859
:1017A0002C2F6B62AC620620FFE646462368DDF80C
:1017B0000C806AE72046FFF77DFC04340246AC63E8
:1017C0002846144622F01CFA00283FF4EDAE3846B5
:1017D00022460F21FFF770FE0720E6E60D2138466E
:1017E000FFF744FE2862049B6B62DBE70BF101000C
:1017F00004EB80007AE700BFD14702080023A9E686
:101800000123A7E60223A5E62DE9F0430646C3B06F
:1018100015461C46042900F2BF80DFE801F09E5700
:10182000BD2D0300002C40F0B780102A00F2B480D8
:101830000368D80600F1F98020AF384600F098F927
:10184000B46B394600234FF0010C0CFA03F22A4224
:10185000204603F1010303D050F8042B0A6004462C
:10186000042B01F10401F0D13846B46300F076F99D
:10187000002043B0BDE8F083032C40F08D8094B28B
:1018800004EB1243102B4FEA124500F285800368E7
:101890001F0700F1D28020AF384600F03DF9B26B4F
:1018A00007EBC50154B10B46D01A01EBC401E400AB
:1018B0001D5843F8045B8B42FAD122443846B26388
:1018C00000F008F9002043B0BDE8F083012C4FEA96
:1018D000124895B25CD0052C5ED108EB0509B9F130
:1018E000200F59D8B8F10F0F79D9A946002D40F033
:1018F0008A80B36B6DB320AF4FF0000907EBC807C8
:10190000043F03EBC50553F8041B47F8041FAB4223
:10191000F9D1B9F1000F0FD06F464146102938BFF9
:10192000102107EBC101843903EBC90553F8040BFF
:1019300041F8040FAB42F9D1012C00F08680B8F1D8
:101940000F0FB56347D9B9F1000F02D0684600F018
:10195000B9F8002043B0BDE8F083ECB9806B2346B2
:101960001FFA82FC0124371D04FA03F212EA0C0F5D
:10197000014604D051F8042B47F8232008460133D0
:10198000102BF1D115F40055E3D1B063284604E0E3
:1019900008EB0503102B03D9022043B0BDE8F08308
:1019A000B8F10F0FF8D83368DA0706D5304623F0C0
:1019B000030340F8483B00F079F820AF384600F0C8
:1019C00075F8B36B002D97D11D460435B5633846C5
:1019D00000F068F8BDE720A800F06CF8B3E7B9F1B3
:1019E000100F40D9A9F110093368D90708D523F0A1
:1019F0000103304643F0020340F8483B00F05EF834
:101A0000B9F1000F32D033685A0720D4B8F10F0F64
:101A100025D96F463846C8F1100500F057F8002D5B
:101A2000B36B7FF77AAF20AF68E723F01003336022
:101A300006F5E87000F09CF8FEE623F0080303606A
:101A400000F5A87000F068F825E720AFBDE7304644
:101A500023F0040340F8D03B00F038F8D6E720A884
:101A600000F02CF8D5E74FF00009BDE7B8F10F0FF3
:101A70003FF63FAF20AF384600F020F8B36B002DA3
:101A80007FF43AAF384600F015F862E700F1340110
:101A900091E838009C46A6464CF8045D90E8FF0F9C
:101AA000E54600BD90EC210B704700BF80EC210B98
:101AB000704700BF90EC200B704700BF80EC200BFC
:101AC000704700BFD0EC200B704700BFC0EC200B6C
:101AD000704700BFF0EC0201F0EC0211F0EC0221C3
:101AE000F0EC0231F0EC0241F0EC0251F0EC02615A
:101AF000F0EC0271F0EC0281F0EC0291F0EC02A14A
:101B0000F0EC02B1F0EC02C1F0EC02D1F0EC02E139
:101B1000F0EC02F1704700BFE0EC0201E0EC0211D2
:101B2000E0EC0221E0EC0231E0EC0241E0EC025199
:101B3000E0EC0261E0EC0271E0EC0281E0EC029189
:101B4000E0EC02A1E0EC02B1E0EC02C1E0EC02D179
:101B5000E0EC02E1E0EC02F1704700BFB0FC018173
:101B6000B0FC0191B0FC01A1B0FC01B1704700BF15
:101B7000A0FC0181A0FC0191A0FC01A1A0FC01B18D
:101B8000704700BFEC4600B52DE900502DE9FF1F5E
:101B90004FF000032DE90C0001A9FFF7E1FBDDF890
:101BA00040E012B0704700BFEC4600B52DE9005090
:101BB0002DE9FF1F4FF000032DE90C0001A9FFF7ED
:101BC0000BFCDDF840E012B0704700BFEC4600B5FA
:101BD0002DE900502DE9FF1F4FF000032DE90C0007
:101BE00001A9FFF71BFCDDF840E012B0704700BF11
:101BF000EC4600B52DE900502DE9FF1F4FF0000322
:101C00002DE90C0001ABFFF7DFFBDDF840E012B07F
:101C1000704700BFEC4600B52DE900502DE9FF1FCD
:101C20004FF000032DE90C0001AAFFF751FCDDF88D
:101C300040E012B0704700BF027A03467AB9427A98
:101C4000A2B14168013A10B44272086803220C1D27
:101C50001A7202025C60000E10BC1A6070470068C5
:101C6000013A1A7202021A60000E7047B0207047E3
:101C700000B585B0002303AA009219460C22FFF795
:101C8000DDFB039805B05DF804FB00BFF0E700BF83
:101C90002DE9F043054685B00E464FF0000830466A
:101CA000FFF7CAFFB028044600F0BA80070620D527
:101CB00000F0F003802B4DD0902B36D0A02B60D0BD
:101CC000B02B74D0C02B00F08B8000F0F803D02B29
:101CD0000BD100F007020132052342F4002201215A
:101CE0002846FFF791FD0028D9D0092005B0BDE8AE
:101CF000F0838300DBB21F1D0DF10C090023194690
:101D0000CDF800900D222846FFF798FB039BCDF8F5
:101D1000009060064CBFDF1BFF1800230D22194600
:101D200028460397FFF7B0FBB9E700F00D030D2B32
:101D3000DBD003AF002300F00F02194600972846BE
:101D4000FFF77CFB002300970D2219462846FFF77A
:101D50009BFBA4E73046FFF76FFF24022043B0F55A
:101D6000004FC2D004010023A2B219462846FFF753
:101D70004BFD0028B9D114F4004F18BF4FF00108F3
:101D80008DE7C24302F007034FF47F621A41010757
:101D900002F47F624FF0000348BF42F480421946CC
:101DA0002846FFF731FD00283FF479AF9DE7B128C1
:101DB0003BD0B22800F09380B32841D000F0FC0360
:101DC000B42B92D000F007020132012342F400222A
:101DD00019462846FFF718FD00283FF460AF84E756
:101DE000C6284AD0C72854D000F0F803C02B63D0CF
:101DF000C82868D0C9287FF478AF3046FFF71CFFA9
:101E0000020300F00F0002F47022013002430121AE
:101E100005232846FFF7F8FC00283FF440AF64E7AD
:101E2000B8F1000F18D0002060E73046FFF704FF3C
:101E3000024600283FF459AF10F0F003C8D054E731
:101E40003046FFF7F9FE020300F00F03013302F4FE
:101E500070221A430123BBE703AC43460E224146DE
:101E600000942846FFF7EAFA009443460F224146C1
:101E70002846FFF709FB404638E73046FFF7DCFE0F
:101E8000020300F00F03013302F470221A4303230C
:101E90009EE73046FFF7D0FE024600283FF425AF0C
:101EA00010F0F0037FF421AF04212846FFF7ACFCCB
:101EB00000283FF4F4AE18E700F00F0201320323CC
:101EC00042F4202284E73046FFF7B6FE00F0F0022D
:101ED00000F00F031032013343EA023297E7002388
:101EE0000DF10C090D221946CDF800902846FFF798
:101EF000A5FA3046FFF7A0FE02064FF002040CD50B
:101F0000039B00F07F00A040184403903046FFF789
:101F100093FE030604F10704F2D4039BCDF800906E
:101F200000F07F02A24003F501731A4400230392DC
:101F300019460D222846FFF7A7FAB0E610B5C26C85
:101F4000536884B04FF0030C08321C0208461B0E85
:101F500001A9019402928DF80CC08DF80D30FFF7A5
:101F600097FE04B010BD00BF08B5FFF78FFE806C70
:101F700008BD00BF08B5FFF789FEC06CC379023306
:101F800000EB830008BD00BF704700BFF1EE103AC0
:101F900043F08073E1EE103A704700BF0749CA680A
:101FA00003024FF6FF0003F4E0630240134343F0E3
:101FB000BF6343F40033CB60704700BF00ED00E027
:101FC0001C4BDB68C3F3022300B5C3F1070EBEF15F
:101FD000040F03F1040C28BF4FF0040EBCF1060FF0
:101FE0001BD9033B4FF0FF3C0CFA03FC22EA0C0226
:101FF0004FF0FF3C0CFA0EFC21EA0C01994000283E
:1020000041EA02010CDB00F16040090100F561408A
:10201000C9B280F800135DF804FB00221346E7E71D
:10202000054B00F00F0009010344C9B219765DF8B1
:1020300004FB00BF00ED00E0FCEC00E04109044AB5
:1020400000F01F00012303FA00F042F8210070475E
:1020500000E100E04309054900F01F0001222033A0
:1020600002FA00F041F82300704700BF00E100E0F1
:102070000138B0F1807F10D210B44FF0E023084C4B
:1020800058614FF0F00C84F823C00022072110465D
:102090009A615DF8044B196170470120704700BFD9
:1020A00000ED00E04FF0E022042813690CBF43F07C
:1020B000040323F004031361704700BF08B51346FF
:1020C0000A460221C0E90633C0F8F411002102F0EB
:1020D0004BFC002008BD00BF08B513460A4600218E
:1020E00002F042FC002008BD08B513460A46032151
:1020F000C0E94233C0F8F411002102F043FC002093
:1021000008BD00BF08B513460A46002102F03AFC9C
:10211000002008BD08B504220023C0F8F4211946A8
:102120001A4602F021FC002008BD00BF08B50522B8
:102130000023C0F8F42119461A4602F023FC0020BF
:1021400008BD00BF30B5014689B000222D20FFF741
:1021500037FF2D20FFF772FF0025164B02951A6CF2
:10216000154C42F480721A641B6C03F4807301A94D
:1021700003A80293029B05F07DFB05F05BFB0F4A71
:102180000F4921604300A2FB03239B0C013B40F25B
:10219000E7322046C4E903256360A56008F006FB2A
:1021A00010B1012009B030BD204608F05DF809B03B
:1021B00030BD00BF003802402406002083DE1B43F0
:1021C0000020004000287BD038B590F8203004462D
:1021D000002B72D02268136823F00203136004F00E
:1021E0007BFD054604E004F077FD431B0A2B5BD81A
:1021F00023685A689107F6D41A6842F001021A60FF
:1022000004F06AFD054604E004F066FD401B0A2860
:102210004AD823685A68D207F6D5227E012A1A685E
:102220000CBF42F0800222F080021A60627E012A16
:102230001A680CBF42F0400222F040021A60A27EEF
:10224000012A1A680CBF42F0200222F020021A6014
:10225000E27E012A1A680CBF22F0100242F010023E
:102260001A60227F012A1A680CBF42F0080222F08D
:1022700008021A60627F012A1A680CBF42F0040249
:1022800022F004021A60D4E90220216902430A43C1
:1022900060696168024301390A4300200121DA6163
:1022A000606284F8201038BD636A052243F400336D
:1022B000636284F82020012038BD04F0E7FF89E73D
:1022C0000120704790F82020012A0AD090F82020A1
:1022D000022A034605D0426A42F4802201205A6253
:1022E0007047404BD3F800220120024330B4C3F8BA
:1022F0000022D3F8002222F47C52C3F80022D3F843
:1023000000224C6A42EA0422C3F800224A69D3F848
:102310001C42904024EA0004C3F81C42CD69C44327
:10232000002D45D1D3F80C522540C3F80C52D200F1
:10233000CD688B8802F1804202F5C84243EA05432A
:10234000C2F840328D680B8843EA0543C2F8443234
:102350008B69244A33BBD2F804322340C2F80432DA
:102360000B69C3B91F4BD3F814221440C3F81442AD
:102370000B6A012B05D11B4AD2F81C321843C2F854
:102380001C02184AD2F8003223F00103002030BCAE
:10239000C2F800327047134AD2F814320343C2F82D
:1023A0001432E5E7D2F804320343C2F80432D7E727
:1023B000012DCDD1D3F80C520543C3F80C52D200F5
:1023C0000D688B8802F1804202F5C84243EA05435A
:1023D000C2F840328D688B8943EA0543C2F8443223
:1023E000B6E700BF0064004070B590F82030012BC4
:1023F000044606D0436A012643F400234362304674
:1024000070BD0268DEB2022380F82030136823F02A
:102410000103136004F060FC054604E004F05CFC7A
:10242000431B0A2B08D823685B6813F00103F5D11E
:102430001E466362304670BD636A052243F4003372
:10244000636284F82020304670BD00BF38B590F834
:102450002030022B044605D0436A43F48013012048
:10246000636238BD0268136843F00103136004F02F
:1024700033FC054604E004F02FFC431B0A2B0CD868
:1024800023685A68D207F6D51A68012122F00202A1
:102490001A6084F82010002038BD636A052243F4D6
:1024A0000033636284F82020012038BD844690F810
:1024B0002000012803D09CF8200002283ED1DCF83F
:1024C000000010B48468640105D48468240102D437
:1024D0008468E40043D58468C4F3016C012404FAE1
:1024E0000CF41C608B688BB3CC6823434C6843EAC4
:1024F000C4030CF118042401035100EB0C130C6904
:10250000C3F88441097D01294FEA0C1C05D1D3F899
:10251000841141F48071C3F8841160445168C0F89B
:102520008C111268C0F88821D3F880215DF8044B23
:1025300042F001020020C3F880217047DCF824300B
:1025400043F480230120CCF824307047CB680C681A
:1025500043EA44540CF118031B01C450CDE7DCF8E6
:1025600024305DF8044B43F400130120CCF82430F0
:10257000704700BF90F82030012B05D090F8203034
:10258000022B01D000207047036898689A689B6806
:102590001201C0F3806048BF0130DB00F3D5013089
:1025A000704700BF30B590F82040012C844603D01E
:1025B00090F82000022872D1DCF80040002961D197
:1025C000E068850763D004EB01104FEA011ED0F8E4
:1025D000B05105F004059560002D6CD1D0F8B051D4
:1025E0006D0D1560D0F8B051C5F34005D560D0F839
:1025F000B45105F00F0515617444D0F8B451D0F80A
:10260000B401D4F8B841C5F30725000C95615061B9
:102610001C70DCF800207244D2F8B821120A5A70FB
:10262000DCF800207244D2F8B821120C9A70DCF861
:1026300000207244D2F8B821120EDA70DCF80020C3
:102640007244D2F8BC211A71DCF800207244D2F82E
:10265000BC21120A5A71DCF800207244D2F8BC2165
:10266000120C9A71DCF800207244D2F8BC21120ED0
:10267000DA71E1B9DCF80020D36843F020030846A2
:10268000D36030BD01299ED1206980079BD1DCF841
:10269000243043F400130120CCF8243030BDDCF8A2
:1026A000243043F480230120CCF8243030BD0129AC
:1026B00006D0002030BDD0F8B051ED08556091E74C
:1026C000DCF80020136943F020030020136130BDC3
:1026D00090F82030012B05D090F82030022B01D04B
:1026E00000207047036819B9D86800F003007047EC
:1026F000186900F00300704790F82020012A034673
:1027000009D090F82020022A05D0426A42F48022A3
:1027100001205A6270471A685369194300205161B9
:10272000704700BF90F82020012A034609D090F896
:102730002020022A05D0426A42F4802201205A62F7
:1027400070471A68536923EA0101002051617047FC
:102750002DE9F84F03685C69D3F804809F68D3F8CB
:102760000CB0D3F810A0D3F8189014F00106054669
:1027700020D017F001060DD001229A60BB0700F1AE
:10278000C4807E0700F1E38017F0080600F0E880BF
:102790004FF48056F8050BD52B684FF48072B905BD
:1027A0009A6000F1AE807A0540F1CC8046F4005684
:1027B000F80365D4270702D51BF0100F6BD1600713
:1027C00003D51BF0080F40F08D80A10704D52B68BE
:1027D000DB689A0740F08280630602D51AF0100F7A
:1027E00048D1A70602D51AF0080F62D1E00603D53A
:1027F0002B681B6999077CD1A20302D518F0100F32
:102800005ED1E30302D518F0080F60D1270405D587
:1028100018F0040F06D12B6804225A60002E40D114
:10282000BDE8F88FE00504D519F0010F18BF46F098
:102830000106A10504D519F0020F18BF46F00206E3
:10284000620504D519F0040F18BF46F004062305ED
:10285000E1D519F07009DED0B9F1400F00F08B809E
:1028600057D8B9F1200F78D0B9F1300F5FD146F0C9
:10287000200656E02B68102246F480661A61B0E705
:102880002B684FF48032B9039A6036D47A0354D55A
:1028900046F400468EE72B68102246F40076DA6094
:1028A0008DE76B6A1E4328466E6220F0BDFDBDE8D1
:1028B000F88F2B6808221A61284620F0AFFD95E7B3
:1028C0002B6810225A60284620F0AAFD99E72B6851
:1028D00008225A60284620F0A5FD97E7284620F0F8
:1028E0008DFD79E72B680822DA60284620F092FDFA
:1028F0006BE7284620F090FD7EE7284620F076FD25
:1029000058E7284620F070FD52E720F06BFD0026C6
:1029100040E7B9F1500F1DD0B9F1600F08BF46F480
:1029200080762B689A6922F070029A6174E7B9F197
:10293000100FF6D146F00806F3E73B0317D546F42F
:10294000803637E73B050ED546F4804630E74FF436
:1029500000661FE746F08006E3E746F01006E0E772
:1029600020F046FD16E7284620F044FD20E72846E3
:1029700020F042FD1EE746F04006D2E7406A70476D
:1029800090F82020012A034609D090F82020022A3E
:1029900005D0426A42F4802201205A62704700202A
:1029A0005862704784B00DF1040C8CE80E00069B51
:1029B000012B30D1836B0D9A23F480338363C3687A
:1029C00023F4840323F04003C360C368012A23F483
:1029D0004013C36039D01F4B01E0013B0DD00269A9
:1029E000002AFADA02691B4B42F00102026101E09F
:1029F000013B02D00269D107FAD4049B012B07D115
:102A0000836843F006038360836843F02003836098
:102A1000002004B07047C2680E4B42F04002C26012
:102A200001E0013B0DD00269002AFADA0269094B84
:102A300042F00102026101E0013B02D00269D207CB
:102A4000FAD44FF480338363D7E7C36843F4801329
:102A5000C360C0E7400D0300034600209A6842F0BF
:102A600001029A60704700BF034600209A6822F076
:102A700001029A60704700BF08B5C368012923F0BE
:102A8000C043C36009D019B9C36843F08043C36031
:102A9000322004F027F9002008BDC36843F000533A
:102AA000C360322004F01EF9002008BD84B02DE977
:102AB000704307AC84E80E00119C0A9D836B002CC8
:102AC00040F08D8043F4001383630023C0F8003E80
:102AD0000C9BD0F80028C0F80028012B00F5006CF2
:102AE00000F09480D0F8003843F00303C0F80038B9
:102AF0004FF4846303614C4B01E0013B02D0026957
:102B00009606FAD410230361474B01E0013B02D043
:102B10000269D206FAD400224FF0FF33CCF810201D
:102B2000CCF81420CCF81830CCF81C2071B300F588
:102B3000106396464FF090494FF0FF081E6801322F
:102B4000002EB4BFC3F80090C3F800E08A42C3F877
:102B500010E0C3F8088003F12003EFD1002200F554
:102B6000306396464FF090494FF0FF081E680132DF
:102B7000002EB4BFC3F80090C3F800E08A42C3F847
:102B800010E0C3F8088003F12003EFD1DCF8103027
:102B9000012D23F48073CCF8103024D000226FF084
:102BA0008043826143611DB9836943F010038361EF
:102BB00081691E4B0D9A0B4383611AB1836943F0FF
:102BC00008038361012C05D1836943F0804343F0FE
:102BD00004038361BDE87043002004B0704743F4F0
:102BE0000023836371E7124BCCF83030DCF83030CF
:102BF00043F4803343F00303CCF8303000226FF00D
:102C00008043DCF8301082614361D1E7099B23B92E
:102C1000D0F80038C0F800386AE7D0F8003843F040
:102C20000103C0F8003863E7400D030000383C8022
:102C300000018000890141F02001064A016101E0A4
:102C4000013A05D0036913F02003F9D11846704703
:102C500003207047400D030000F50062D0F808081B
:102C600010F0060012D0936803F00603022B0CD07C
:102C7000936803F00603062B07D0936803F006035E
:102C8000042B14BF0020022070470320704700BFB0
:102C900030B44B78012B21D091F800C0D0F81C48FB
:102CA0004FF4803303FA0CF300F53062234302EB58
:102CB0004C12C0F81C3813681B040CD48B681068C5
:102CC000C978C3F30A03034343EA814343F08053C3
:102CD00043F400431360002030BC70470C78D0F8F8
:102CE0001C58A34000F510629BB22B4302EB441228
:102CF000C0F81C3813681804EDD48B681068C978C4
:102D0000C3F30A03034343EA814343EA845343F092
:102D1000805343F40043002030BC1360704700BF71
:102D200030B44B78012B2BD091F800C000F5306106
:102D300001EB4C114FF000620B684FF0804423F41C
:102D400000430B600A60264A0C6001E0013A44D05F
:102D50008B6813F01003F9D1D0F8041841F48061A6
:102D6000C0F80418D0F81C184FF4803202FA0CF2A4
:102D700021EA020130BC00F500621846D1617047BB
:102D80000C7800F5106101EB44114FF000630A6804
:102D90004FF0804522F400420A600B60104B0D603A
:102DA00001E0013B19D08A685500FAD44FF48462DF
:102DB0000B4B026101E0013B02D002699206FAD49A
:102DC0000123D0F81C28A3409BB222EA030330BCA5
:102DD00000F500620020D3617047032030BC7047CB
:102DE000400D03002DE970434C78012C47D00C783E
:102DF00000F5306303EB44134C691D69ED0CED04E1
:102E00001D611D6925F0FF5525F4C0151D615CB3DA
:102E10008E68614D3444013CB4FBF6F405EAC445C8
:102E2000A4B206FB04F41E6935431D611D69C4F399
:102E300012042C431C61012A04BFCA685A61CA7873
:102E4000012A0AD1D0F8082812F4807F1A680CBF32
:102E500042F0005242F080521A601A6842F0044276
:102E60001A600020BDE870838C681D69C4F31204E9
:102E70002C431C611C6944F400241C61DBE70E78C0
:102E80004D6900F5106303EB4613BDB3D3F810C0D2
:102E9000D1F808904FEADC4C4FEACC4CC3F810C094
:102EA000D3F810E0DFF8F0C02EF0FF5E2EF4C01E65
:102EB000C3F810E0D3F8108005EB090E0EF1FF3EC9
:102EC000BEFBF9FE0CEACE4C4CEA080CC3F810C06D
:102ED000D3F810E0C5F3120C4CEA0E0CC3F810C086
:102EE00091F803C0BCF1010F46D0012A51D0D0F8AF
:102EF0003428B4401443C0F83448AEE71C6924F0C9
:102F0000FF5424F4C0141C611C6944F400241C61A7
:102F10001C69E40CE4041C61012A91F803C024D06C
:102F2000BCF1010F99D1D0F8084814F4807F1C68D7
:102F30000CBF44F0005444F080541C601C6844F002
:102F400004441C60002A8CD1ADB20335AD0888D092
:102F5000CB6800F5805000EB063603EB850153F893
:102F6000042B32609942FAD17BE70C695C61BCF1B9
:102F7000010F7FF472AFD6E71C6924F0C0441C61D6
:102F80001C69012A44F000541C61CCD10C695C61BD
:102F9000C9E70A695A6160E70000F81F4B78012B06
:102FA00070B427D00B784C6900F5306000EB43100B
:102FB0000369DB0CDB040361036923F0FF5323F493
:102FC000C01303618B689CB9046944F40024046154
:102FD0000469C3F312032343012A036104BFCB68CE
:102FE0004361036843F004430360002070BC7047F2
:102FF0004B61E9E791F800C04C6900F5106303EB01
:103000004C136CB31D698E68ED0CED041D611D69D8
:1030100025F0FF5525F4C0151D611D69B44245F426
:10302000002588BF4E611D611D6988BF3446C4F309
:1030300012042C431C611C68012A44F004441C60E7
:1030400022D04B69002BD0D0D0F83428012303FACA
:103050000CFC4CEA0202C0F8342870BC0020704717
:103060001C6924F0FF5424F4C0141C611C6944F44E
:1030700000241C611C69E40CE4041C611C68012A26
:1030800044F004441C60DCD10A695A61002070BC21
:10309000704700BF10B49DF804406CB903339B081F
:1030A0000AD000F5805000EB023201EB830351F8A7
:1030B000040B10608B42FAD100205DF8044B70477E
:1030C000033292080AD000F5805C01EB8200DCF844
:1030D000003041F8043B8842F9D1704708467047F8
:1030E0004B78012B0B7810D000F5306000EB4310CB
:1030F0000368002B03DB036823F08043036003684D
:1031000043F4001303600020704700F5106000EBEB
:1031100043100368002BEEDAF1E700BF4B78012B78
:103120000B780CBF00F5106000F5306000EB431029
:10313000036823F400130360CB78023B012B03D810
:10314000036843F08053036000207047D0F80038D4
:1031500023F4FE63C0F80038D0F80038090101F408
:10316000FE611943C0F800180020704708B50346F7
:103170000320D3F8042822F00202C3F8042803F045
:10318000B1FD002008BD00BF08B503460320D3F8F9
:10319000042842F00202C3F8042803F0A3FD002033
:1031A00008BD00BF4269806910407047D0F81838E8
:1031B00000F50060C0691840000C7047D0F818385E
:1031C00000F50060C069184080B2704700F53063B8
:1031D00003EB411100F500608A68406910407047B8
:1031E00010B4D0F81048D0F8343800EB4110CB4080
:1031F000DB01D0F80809DBB2234318405DF8044B2B
:10320000704700BF406900F001007047D0F80039F6
:1032100023F4FF6323F0070300F50062C0F80039D0
:10322000936803F00603042B05D1D0F8003943F06E
:103230000303C0F80039536843F4807300205360DF
:10324000704700BF10B40024C0F8104BD0F8104BEA
:1032500044F40024C0F8104BD0F8104B44F018048C
:10326000C0F8104BD0F8104B012944F0C044C0F80E
:10327000104B05D14FF08021C0F8142BC0F8001B73
:1032800000205DF8044B704710B5012188B0702410
:103290000023CDE901410C2201A9CDE90333CDE999
:1032A0000533079307F044FC08B010BD10B518486B
:1032B000184901608CB04FF6FF71C16003210023F3
:1032C00001240422039103A9C0E90133CDE90434A8
:1032D000CDE90632CDE90834CDE90A32036107F0C1
:1032E000D5FA48B900230A4801A9CDE9013300F015
:1032F00099FB30B90CB010BD0748EA2101F0CEF9B6
:10330000F0E70548F12101F0C9F90CB010BD00BF8C
:103310001407002000040040389F020810B5194827
:10332000194901608CB04FF6FF71C1600321002381
:1033300001240422039103A9C0E90133CDE9043437
:10334000CDE90632CDE90834CDE90A32036107F050
:103350009DFA48B900230B4801A9CDE9013300F0DB
:1033600061FB38B90CB010BD084840F20B1101F0F8
:1033700095F9EFE705484FF4897101F08FF90CB02A
:1033800010BD00BF5007002000080040389F020811
:1033900000B524482449002387B04FF0FF32C0E92C
:1033A0000013C0E90232036107F054FAF8B90023B0
:1033B0001C486946CDE9003300F034FB58BB0A22B3
:1033C0000123CDE9022300210F230822CDE90413B4
:1033D00014480DEB020107F0E5FAB0B911480C22D0
:1033E00002A907F0DFFA40B907B05DF804FB0F4807
:1033F00040F2231101F052F9D9E70C484FF49C71C7
:1034000001F04CF907B05DF804FB084840F23311B5
:1034100001F044F9E2E705484FF4957101F03EF9F7
:10342000CDE700BF8C070020000C0040389F020849
:103430000A480B4908B542F603120023C0E90013FD
:10344000C0E90232036107F0B1F900B908BDBDE877
:103450000840044840F2851101F020B99C06002084
:10346000001C0040389F020800B51B4A03689342C5
:1034700083B005D0194A934218D003B05DF804FB1D
:103480000022174B0092596C41F0010159645B6CAA
:1034900003F00103009319201146009BFEF790FDF5
:1034A000192003B05DF804EBFEF7C8BD00220C4BF9
:1034B0000192196C41F0800119641B6C03F08003C8
:1034C00001932C201146019BFEF77AFD2C2003B0BE
:1034D0005DF804EBFEF7B2BD00000140001C0040A7
:1034E0000038024000B50368B3F1804F83B005D0C7
:1034F000194A934212D003B05DF804FB03F50E3372
:10350000002200921A6C42F001021A641B6C03F054
:1035100001030093009B03B05DF804FB00220F4BF6
:103520000192596C41F0020159645B6C03F0020393
:10353000114601932C20019BFEF742FD2C20FEF743
:103540007DFD002211462D20FEF73AFD2D2003B00F
:103550005DF804EBFEF772BD000401400038024044
:1035600030B51A4A0368934289B004D0184A93428E
:1035700019D009B030BD02F50D3200230193116C52
:103580001448022421431164126C22400192019AD2
:10359000302503A9CDE90354CDE90533079407F09D
:1035A0009FFD09B030BD02F50C3200230293116C6F
:1035B000084841F004011164126C02F00402029206
:1035C000029A0224C02503A9E4E700BF00040040DA
:1035D0000008004000040240144B02689A4200D0E8
:1035E000704730B587B0002403F50B3300941A6C94
:1035F0000F4842F008021A641B6C03F00803022211
:10360000009301A90C23CDE901320592CDE90344D1
:10361000009D07F065FD224605213220FEF7D0FC13
:103620003220FEF70BFD07B030BD00BF000C00409C
:103630000000024070B52A4A0368934286B007D062
:10364000B3F1804F1FD0274A93422CD006B070BDF3
:103650004FF46043244801A9002402260125CDE946
:103660000136CDE90344059507F03AFD4FF4E063D8
:103670001E48019301A9CDE90264CDE9044507F094
:103680002FFD06B070BD00230122174805924FF4AC
:103690004065022401A9CDE90154CDE9033307F0C7
:1036A0001FFD06B070BD802303251048059500243A
:1036B000022601A9CDE90136CDE9034407F010FD4A
:1036C0000948059501A9CDE90156CDE9034407F064
:1036D00007FD4FF4E0730648019301A9CBE700BF53
:1036E00000000140000401400004024000000240CC
:1036F0000008024010B55248524C6022002394B09A
:1037000040F6AC5182600222C0E90043C0E90313D5
:10371000426107F04BF800285BD14FF480534848D2
:10372000029302A906F06CFE002840F08380444812
:1037300007F074F8002878D1414807F053F80028C2
:103740006ED1202200233E486946CDE9002300F0D7
:1037500069F900285FD10022702339480C9206A92C
:10376000CDE90632CDE90822CDE90A2207F010FAA8
:1037700000284BD13248042206A907F009FA002894
:103780003FD12F48082206A907F002FA002833D1BA
:1037900000232B4806930C2206A907F0C9F930BB79
:1037A0004FF400614FF480620023CDE90D12142420
:1037B0004FF40052224813930DA9CDE90F34CDE9FF
:1037C000113200F055F948B91D48FFF733FF14B026
:1037D00010BD1D48652100F061FF9EE7A4211A4835
:1037E00000F05CFF1648FFF725FF14B010BD164827
:1037F000982100F053FFD3E71348922100F04EFFC9
:10380000C6E711488D2100F049FFBAE70E4888212C
:1038100000F044FFAEE70C487C2100F03FFF9AE740
:103820000948752100F03AFF8BE70748702100F046
:1038300035FF81E704486B2100F030FF77E700BFD8
:103840006006002000000140389F020810B527489C
:1038500000238AB04FF0804460214FF48052C0E9C9
:103860000043C0E90212036106F0D8FF28BB002321
:103870001E4801A9CDE9013300F0D4F880BB002334
:1038800070210222CDE903130592184807930822FC
:1038900003A907F07DF9F0B90C2241F201040023DD
:1038A00012480DEB0201CDE9044307F071F948B964
:1038B0000E48FFF7BFFE0AB010BD0D48B72100F05B
:1038C000EDFED4E7CE210A4800F0E8FE0748FFF7F6
:1038D000B1FE0AB010BD0648C72100F0DFFEDBE7ED
:1038E0000348BE2100F0DAFEC9E700BFD806002079
:1038F000389F020810B53D483D4C6022002390B02F
:1039000040F6AC5182600222C0E90043C0E90313D3
:10391000426106F083FF00283FD120220023334874
:103920006946CDE9002300F07DF8002857D1002238
:1039300070232E48089202A9CDE90232CDE9042273
:10394000CDE9062207F024F9002842D127480422B5
:1039500002A907F01DF9002835D1082223480DEBF4
:10396000020107F015F940BB4FF400614FF480628B
:103970000023CDE9091214244FF400521B480F9381
:1039800009A9CDE90B34CDE90D3200F071F850B939
:103990001648FFF74FFE10B010BD164840F24B110D
:1039A00000F07CFEB9E74FF4BA71124800F076FEE1
:1039B0000E48FFF73FFE10B010BD0E484FF4B47133
:1039C00000F06CFED0E70B4840F2631100F066FE99
:1039D000C3E708484FF4AF7100F060FEB6E7054852
:1039E0004FF4A97100F05AFEA1E700BFC8070020FC
:1039F00000040140389F020803680422186A02FA92
:103A000001F120EA010018621A6A114319625A6C26
:103A100042F400425A641A6842F0010200201A601F
:103A2000704700BF90F83830012B1FD00246036862
:103A3000022070B482F839005C680E684D6824F08A
:103A400070045C60586830435860986820F08000CB
:103A500098609968002429434FF0010C996082F81E
:103A600039C082F83840204670BC70470220704749
:103A700090F83830012B23D010B4D1E9024323F45D
:103A800040730246234348680C6823F48063034371
:103A900023F400630869234323F4805303434869F4
:103AA0008C6923F40053034323F44043106800213E
:103AB0002343436482F8381008465DF8044B70478E
:103AC00002207047704700BF704700BF10B4046801
:103AD000606A31B940EA0240A06200205DF8044B00
:103AE0007047A36AB1F1010C00EB13400CD0002326
:103AF0001946403104EB810101334968DBB263456B
:103B000000EB11401946F4DB0CF1400C04EB8C0C7B
:103B100040EA0240CCF804005DF8044B00207047F6
:103B2000036800205962704700B583B01B4B002228
:103B30000092186B40F400101863186B00F400102A
:103B4000009000980192186B40F4800018631B6B82
:103B500003F48003052101930B20019BFEF730FA4B
:103B60000B20FEF76BFA002205210D20FEF728FA44
:103B70000D20FEF763FA002205210F20FEF720FA40
:103B80000F20FEF75BFA002210200521FEF718FA3D
:103B9000102003B05DF804EBFEF750BA0038024085
:103BA0002DE9F04180460F4616461D46D8F80030F4
:103BB00001E06A1C0CD19C6837EA04020CBF4FF08C
:103BC000010C4FF0000C6645F3D10020BDE8F081F8
:103BD0003DB103F081F8069BC01AA842E6D3D8F89D
:103BE00000305A68D8F8041022F0E002B1F5827F64
:103BF0005A6016D0D8F82820B2F5005F07D001220D
:103C0000002388F8512088F850300320DEE71A6836
:103C10004DF6FF710A401A601A6842F400521A60A9
:103C2000EDE7D8F80820B2F5004F02D0B2F5806F6A
:103C3000E0D11A6822F040021A60DBE700283BD08E
:103C400038B590F8512000230446836202F0FF014A
:103C500062B31846D4E90131E26825680B43134387
:103C6000D4E904120B431343E269022184F8511092
:103C70001343226A29681343A26921F04001296095
:103C800002F4007C616A120C43EA0C0302F00402A5
:103C900003430A432B606A60EB69002023F400634E
:103CA0000122EB61606584F8512038BD80F8501026
:103CB00000F0A6FEA06ACDE70120704790B102682F
:103CC000022310B580F85130136823F040030446F6
:103CD000136000F01FFF0020606584F8500084F836
:103CE000510010BD012070472DE9F043044690F8C3
:103CF0005000012885B068D01D46012384F850305B
:103D00000E46914602F0E8FF94F85130012B074629
:103D10005FFA83F80BD04FF00208012200234046DF
:103D200084F8512084F8503005B0BDE8F083002EAF
:103D3000F3D0B9F1000FF0D00023A268A3630321F0
:103D400084F85110C4E910336365A387A4F8369052
:103D5000E38723682663B2F5004F08BF1A68A4F80A
:103D6000349004BF42F480421A601A68520603D4A9
:103D70001A6842F040021A60E268B2F5006F6268A9
:103D800029D0002A4CD0E28E92B2012A48D0E38E8C
:103D90009BB25BB94CE016F8012B1A73E38E013B22
:103DA0009BB2E386E28E92B2002A41D023689A68E1
:103DB0009207F0D435B16B1CF4D002F08DFFC01B1C
:103DC000A842EFD34FF00308A7E74FF002084046A0
:103DD00005B0BDE8F083002A4BD136F8022BDA603B
:103DE000E28E013A92B2E286E28E92B25AB91FE0B6
:103DF00036F8022BDA60E38E013B9BB2E386E38E5A
:103E00009BB2ABB123689A689007F1D4002DD9D04A
:103E1000691CF4D002F060FFC01BA842EFD3D1E7C9
:103E200016F8012B1A73E38E013B9BB2E386AEE7D3
:103E300000972B46012202212046FFF7B1FE002801
:103E4000C0D1024600972B4680212046FFF7A8FEEE
:103E5000A0B9A36833B922680393D3680393936826
:103E60000393039B636DB3F1000818BF4FF0010883
:103E700053E7E28E92B2012AB6D1AEE7636D2022FB
:103E800013436365626548E72DE9F043154690F8F2
:103E9000502085B0012A0C9F00F085800446994689
:103EA000012380F850300E4602F016FF94F851209E
:103EB0006368012A8046D1B211D0B3F5827F09D060
:103EC00002200122002384F8512084F8503005B0EC
:103ED000BDE8F083A268002AF2D10429F0D1002EB7
:103EE00065D0002D63D0B9F1000F60D094F8512057
:103EF000A563012A04BF052284F8512000226265CF
:103F0000C4E910222268A4F83E90A4F83690116803
:103F1000A4F83C9049062663A4F8349003D41168B1
:103F200041F040011160E168B1F5006F41D0002B14
:103F300070D0E38E9BB2012B6CD04FF00109E38E61
:103F40009BB21BB9E38F9BB2002B43D0B9F1000F9A
:103F50000FD0E38E9BB263B123689A68920708D5AD
:103F600016F8012B1A73E38E013B9BB24FF0000948
:103F7000E386E38F9BB263B121688B6813F0010382
:103F800007D0CA6805F8012B9946E38F013B9BB225
:103F9000E3877B1CD3D002F09FFEA0EB0800B84261
:103FA000CDD303208DE7022005B0BDE8F0830120CA
:103FB00087E7002B62D136F8023BD360E38E013BEA
:103FC0009BB2E3864FF00109E38E9BB253BBE38FB4
:103FD0009BB23BBBCDF800803B460122022120462C
:103FE000FFF7DEFD0028DCD10246CDF800803B461D
:103FF00080212046FFF7D4FD002844D1A368002B80
:104000007FF45FAF23680390DA6803929B680393A1
:10401000039B56E716F8013B1373E38E013B9BB2FB
:10402000E3868AE7B9F1000F0FD0E38E9BB263B14C
:1040300023689A68900708D536F8022BDA60E38E79
:10404000013B9BB2E3864FF00009E38F9BB263B163
:104050002268936813F0010307D0D26825F8022B79
:104060009946E38F013B9BB2E387791CACD002F009
:1040700033FEA0EB0800B842A6D392E7E38E9BB2D2
:10408000012B9FD197E7636D2022134363650120C5
:10409000626516E770B5044690F85000012867D0B5
:1040A000012084F8500094F8510001285FFA80FC48
:1040B0000ED06068B0F5827F04D00220002384F81F
:1040C000503070BDA0680028F7D1BCF1040FF4D1C6
:1040D00000294BD0002A49D0002B47D094F851003A
:1040E0002163012804BF052084F851000020606589
:1040F000E386E38794F85110A3860429A387C4E9D3
:10410000100007BF1B491C4B1C491D4BE06CA263F0
:10411000C0E90F31E38F21681A4EC66400259BB2B7
:104120000C31056501F08AF92268A06C5368216B97
:1041300043F001035360E38E0C329BB2C0E90F558C
:10414000C0E9135501F07AF923681A68520603D4BE
:104150001A6842F040021A605A6842F020025A601F
:104160005A6842F0020200205A60A7E70120A5E742
:10417000022070BD91410008D5410008A14100080E
:1041800025420008B1410008704700BF704700BFDA
:1041900008B5806BFFF7FAFF08BD00BF704700BF8E
:1041A00008B5806BFFF7FAFF08BD00BF704700BF7E
:1041B000806B026808B5536823F003035360436DB6
:1041C000012143F01003436580F85110FFF7EEFF23
:1041D00008BD00BF08B50368806B1B68DB050FD402
:1041E000D0E900215368B1F5827F23F003035360C7
:1041F00009D001230022C28780F85130436D73B982
:10420000FFF7C2FF08BD8368B3F5004F02D0B3F5D6
:10421000806FEED1136823F040031360E9E7FFF7E6
:10422000C5FF08BD30B5054683B0846B02F054FD70
:104230002B681A6812F4807213D1009064238021D5
:104240002046FFF7ADFC88B921684B68002223F0B7
:10425000030301204B60E286E28784F85100636D1E
:104260006BB9204609F016FB03B030BD636D43F017
:1042700020036365636D43F020036365E4E7204634
:10428000FFF794FF03B030BD026810B55168936822
:1042900003F0410CBCF1010F84B004465AD09807DA
:1042A00001D508065ED413F4B07F51D088064FD5EF
:1042B00058060ED594F85100032842D0606D40F0A6
:1042C0000400606500200090D06800909068009025
:1042D000009898060CD5606D40F0010060650020E4
:1042E000029090680290106820F0400010600298E0
:1042F000D80508D5636D002043F00803636503907B
:1043000093680393039B636D13B3536823F0E00337
:10431000536001208B0784F8510029D05368E06C6A
:1043200023F00303536018B1134B036501F012F936
:10433000A06C68B1104B036504B0BDE8104001F0FB
:1043400009B900230193D368019393680193019BFA
:1043500004B010BD11F0400FA1D0036C04B0BDE853
:1043600010401847636C204604B0BDE81040184761
:104370002046FFF71BFFEBE77D43000808B5806B85
:104380000023C387C386FFF711FF08BD38B5084C6B
:10439000084D20684FF0FF3104F028FB0028F8D1C9
:1043A000284601F0CDFB4320FDF748FEF1E700BFB2
:1043B000100800202008002008B502F025FF0DF0AD
:1043C00055FF034B1868BDE8084005F025B900BF4C
:1043D0000408002030B58BB0002401216846009409
:1043E00004F0EEFA274B284D1860214604F0FEFA3F
:1043F000012101A8019404F0E3FA244B029402463F
:10440000012102A81A6004F0DBFA214B2146186052
:1044100004F0ECFA012103A8039404F0D1FA1D4B37
:1044200004940246012104A81A6004F0C9FA1A4B48
:104430002146186004F0DAFAAE46BEE80F000DF12E
:10444000140CACE80F00DEF80030CCF80030214648
:1044500005A804F041FA114B18600EF06FFB0DF047
:10446000D7FC05F1140CBCE80F0005AD0FC5DCF856
:1044700000302B60214605A804F02EFA084B186086
:104480000BB030BD10080020709E02080C08002000
:104490001408002018080020080800201C0800202C
:1044A0000408002010B5144C144A2368934205D028
:1044B000134A934206D02A2B0ED110BD114B00BFD8
:1044C000013BFCD1104B2360104B83F30888104B49
:1044D0005B6898472368EEE72A232360BFF34F8F7A
:1044E0000C490D4BCA6802F4E0621343CB60BFF382
:1044F0004F8F00BFFDE700BF0406002075FEADDE54
:10450000EFBEADDE00A86100EDFEFECA0000022095
:104510000000FF1F00ED00E00400FA0570B594B044
:10452000294A2A4B00200190116C41F080511164FE
:10453000126C02F080520192019A02901A6842F4C1
:1045400080421A601B6803F48043092002934FF4F1
:1045500080324FF48003CDE908020224029D0F93BC
:1045600001210425A822072308A8CDE90D14CDE9CF
:104570001052CDE9124302F0D1FE00B1FEE74FF434
:10458000A05205904FF480530F26052103A8CDE9D2
:104590000364CDE9062303F0ADF8044600B1FEE75D
:1045A00003F042F90A4BA3FB00308009FDF760FDE0
:1045B0002846FDF777FD224631464FF0FF30FDF7E4
:1045C000FFFC14B070BD00BF003802400070004016
:1045D000D34D6210264A2749D2F8180A38B5D2F8C6
:1045E000103AB2F8162A244C244D034442EA0342FE
:1045F0001B0CC1E9002304F10C0E2146C3F3033068
:104600001B01285C01F8010B714543EA12734FEA64
:104610000212F3D10023237302F038FBFFF77EFF71
:1046200004F008FDFFF780FA01F0C6FE01F016FF66
:10463000FFF760F8FFF75EF9FEF738FEFEF76EFE53
:1046400000F0B4F901F05EFFFFF700F900F01AFC8A
:10465000FEF79EFEFEF7ECFE0948FEF715FE094840
:10466000FEF712FEFFF7B6FE04F028F9FEE700BFE2
:104670000070FF1F68CE002070CE0020709F0208DF
:1046800060060020C8070020034B02689A4200D051
:10469000704702F015BB00BF00200040FEE700BFDE
:1046A0000368B3F1A04F00D0704710B54FF4C0526B
:1046B00086B00223CDE90123002401A903220A23A5
:1046C0000F480593CDE9034206F00AFD0D4B596BE7
:1046D00041F0800159630094596C41F48041596460
:1046E0005B6C03F480432246009305214320009B2A
:1046F000FDF766FC4320FDF7A1FC06B010BD00BF2E
:10470000000002400038024070B5D0F8EC5382B08F
:1047100005F5027600F56F7104463046019102F00E
:10472000D5F995F80832019903F06003402B03D1C5
:1047300095F80932502B06D0D4F8EC0302B0BDE84E
:10474000704000F099BCD5F81432B5F80E229B6881
:104750000121C5E97D12284631469847B5F80E3249
:1047600003B908B102B070BD284602B0BDE8704080
:10477000FDF7D0BCC1EBC10300EB8303D0F8EC0321
:10478000D3F8042200F0A8BCC1EBC10300EB830303
:10479000D0F8EC035A6C00F0D3BC00BFD0F8EC03A7
:1047A00000F05ABD10B5C16804460039D0F8EC03DA
:1047B00018BF012100F03AFDD4F8EC03BDE8104029
:1047C00000F014BD10B50446D0F8EC0300F032FD43
:1047D0002268D2F8003E43F00103C2F8003E236A8B
:1047E00023B1034A136943F00603136110BD00BFF0
:1047F00000ED00E0D0F8EC0300F026BDD0F8EC03AB
:1048000000F03ABDD0F8EC0300F034BDD0F8EC0372
:1048100000F034BDD0F8EC0300F032BD02780AB1EC
:1048200000207047194B10B5C3F8EC034FF0A044BB
:10483000C0F8203206200221C3E900401846C3E92F
:104840000312C3E90521C3E90722C3E90B225A6217
:1048500001F0F2F8A0B980210C48FFF761F940227D
:1048600000210A48FFF732F9402201210748FFF7EB
:104870002DF9402203210548FFF728F9002010BD3B
:1048800003484FF4AC71FFF709FFE4E7200800206C
:10489000849F020808B5D0F8200201F03BF90328F4
:1048A00096BF024B0220185C08BD00BFA09F020803
:1048B000944608B51A46D0F82002634601F056FC2B
:1048C000032896BF014B0220185C08BDA09F020878
:1048D00008B5D0F8200201F08DFC032896BF024BEA
:1048E0000220185C08BD00BFA09F020808B5D0F8E0
:1048F000200201F009FD032896BF024B0220185C3C
:1049000008BD00BFA09F020808B5D0F8200201F042
:104910002BFD032896BF024B0220185C08BD00BF88
:10492000A09F02080A06D0F8203206D4C1EBC101CC
:1049300003EB810191F8FA01704701F07F01C1EBAF
:10494000C10103EB810191F83A00704708B5D0F836
:10495000200201F0F9FB032896BF024B0220185CED
:1049600008BD00BFA09F020808B5D0F8200201F0E2
:10497000A3FC032896BF024B0220185C08BD00BFB1
:10498000A09F020808B5D0F8200201F063FC0328BC
:1049900096BF024B0220185C08BD00BFA09F020812
:1049A00008B5D0F8200201F07DFC08BD10B5114813
:1049B000114C4FF482720023C0E900424FF40061B1
:1049C0000122C0E90231C0E904324FF40074182119
:1049D0000A22C0E90641C0E90833C0E90A32FFF7FC
:1049E0002DF900B910BDBDE8104004485221FFF771
:1049F00055BE00BFD00C0020003C0040A49F020820
:104A00003D4B02689A4200D0704770B586B003F5FE
:104A1000FE33002500951A6C384E42F400421A64A9
:104A20001B6C03F400434FF4E0520093009B01928F
:104A300001230222CDE90223044603220623304843
:104A400001A9CDE9042306F04BFB2E4AE36832604E
:104A50004022C6E901524FF48062C6E90352002B9E
:104A600032D1C6E9053300234FF480322348736204
:104A7000C6E9073200F010FC002838D1224DE26868
:104A80002249A66400234FF48060C5E90013C5E9FC
:104A90000233B4632861F2B9C5E9052200234FF45B
:104AA000803219486B62C5E9073200F0F5FBC8B9DE
:104AB000002205213320E564AC63FDF781FA332041
:104AC000FDF7BCFA06B070BD4FF400624FF400531E
:104AD000C6E90523C7E74FF400624FF40053C5E968
:104AE0000523DBE70A489B21FFF7D8FDE0E70848EC
:104AF0008421FFF7D3FDC1E7003C0040700C00208B
:104B00000008024088600240100C00201060024043
:104B1000A49F02080D4B02689A4200D070470C4ACD
:104B2000136C10B523F4004304464FF4E0511364B2
:104B3000084806F003FCA06C00F046FCE06C00F0B6
:104B400043FCBDE810403320FDF784BA003C004030
:104B500000380240000802400A4B1B68013308D0AD
:104B60004FF0500383F31188BFF36F8FBFF34F8F64
:104B7000FEE74FF0500383F31188BFF36F8FBFF34D
:104B80004F8FFEE70000002006480068006880F3B1
:104B9000088862B661B6BFF34F8FBFF36F8F00DF37
:104BA00000BF000008ED00E0DFF80C00016841F4F0
:104BB000700101607047000088ED00E010B44FF014
:104BC0008073074C40F8043C21F001016FF00203B0
:104BD00040E9034140E909325DF8044B443870472D
:104BE000594B000800000000000000000000000019
:104BF000074B19680868B0E8F04F80F30988BFF3E5
:104C00006F8F4FF0000080F311887047AFF3008082
:104C10009C1500204FF0500383F31188BFF36F8F72
:104C2000BFF34F8F0B4A13680133012B136000D081
:104C300070474FF0E023D3F8043DDBB2002BF7D0F0
:104C40004FF0500383F31188BFF36F8FBFF34F8F83
:104C5000FEE700BF00000020084A136843B94FF088
:104C6000500383F31188BFF36F8FBFF34F8FFEE7BD
:104C7000013B13600BB983F31188704700000020DB
:104C8000EFF30980BFF36F8F154B1A681EF0100FFA
:104C900008BF20ED108A20E9F04F10604DF8043D68
:104CA0004FF0500080F31188BFF34F8FBFF36F8F29
:104CB00004F062FF4FF0000080F3118808BC19680F
:104CC0000868B0E8F04F1EF0100F08BFB0EC108A73
:104CD00080F30988BFF36F8F704700BFAFF3008088
:104CE0009C15002008B54FF0500383F31188BFF3E3
:104CF0006F8FBFF34F8F04F065FD28B14FF0E023B5
:104D00004FF08052C3F8042D002383F3118808BDAF
:104D1000064B07491B68A1FB03134FF0E0229B09D8
:104D2000013B072153611161704700BFF40100206E
:104D3000D34D62104FF0E023354AD3F8001D914265
:104D40005DD0D3F8002D334B9A424FD010B5324B83
:104D5000324C1A78324882B0FF21D2B201921970D7
:104D60001B78DBB28DF803309DF803309DF80320EB
:104D700003F0500307211206237001600ED50622AE
:104D80009DF803305B00DBB28DF803309DF80330F3
:104D90001B06114602F1FF32F2D401600368019A4A
:104DA0001D491B024FF0E024D2B203F4E06303601C
:104DB0000A70D4F8203D43F47003C4F8203DD4F8C1
:104DC000203D43F07043C4F8203DFFF7A1FF154B91
:104DD00000221A60FFF7E8FED4F8343F43F0404366
:104DE000C4F8343FFFF7D0FEFFF7B6FE4FF0500394
:104DF00083F31188BFF36F8FBFF34F8FFEE74FF040
:104E0000500383F31188BFF36F8FBFF34F8FFEE71B
:104E100071C20F4170C20F4100E400E0280D002074
:104E20002C0D002000000020EFF305830F2B0ED97E
:104E30001149124A5B5C12789A4208D94FF050032C
:104E400083F31188BFF36F8FBFF34F8FFEE74FF0EF
:104E5000E0230B4AD3F80C3D126803F4E06393425D
:104E600008D94FF0500383F31188BFF36F8FBFF35E
:104E70004F8FFEE7704700BFF0E300E0280D0020F1
:104E80002C0D002010B50C480C4C00234FF4E131E0
:104E90000C22C0E90041C0E90233C0E90432C0E994
:104EA000063302F069FE00B910BDBDE810400448A9
:104EB0004E21FFF7F3BB00BFF00D0020004C004077
:104EC000B89F0208394B02689A4200D070472DE91A
:104ED000F04387B0002503F5F63300951A6C344E85
:104EE00042F400221A641B6C03F4002301220227FF
:104EF00000934FF003094FF0080801A904462D481C
:104F0000009B0192CDE90277CDE9049806F0E8F81C
:104F10002848039501A9CDE90498CDE9017706F069
:104F2000DFF8254A4FF00063C6E9002330464FF40E
:104F300080624FF48073C6E90255C6E90425C6E9CC
:104F40000653C6E9085500F0A7F920BB1B4D1C49C4
:104F500066634FF000620023C5E900122846402135
:104F60004FF48062C5E90213C5E90533C5E907338B
:104F7000B4632A616B6200F08FF988B9256300225F
:104F800005213420AC63FDF71BF83420FDF756F8FB
:104F900007B0BDE8F0830B487F21FFF77FFBD5E723
:104FA00008489121FFF77AFBE8E700BF004C00407A
:104FB000300D00200000024040600240900D0020B3
:104FC00070600240B89F02080D4B02689A4200D000
:104FD00070470C4A136C10B523F4002304460321D8
:104FE0001364094806F0AAF9606B00F0EDF9206B34
:104FF00000F0EAF9BDE810403420FDF72BB800BFFF
:10500000004C0040003802400000024088B108B562
:10501000D0F8143213B10023C0F8143209B1C0F82B
:105020001012012380F8FC310270FFF7F7FB00201B
:1050300008BD0220704700BF19B1C0F8141200204B
:1050400070470220704700BF08B5FFF723FC00201F
:1050500008BD00BF08B5D0F814321BB11B689847D3
:1050600000B908BD022008BD08B5D0F814325B684D
:105070009847002008BD00BF38B5044600F502750A
:10508000284601F023FD94F80812B4F80E22C4F863
:10509000F8210123C4F8F43101F01F03012B09D0DA
:1050A000022B13D063B101F080012046FFF71EFCF4
:1050B000002038BD2946204601F07AFC002038BD8A
:1050C0002946204601F022FB002038BD2946204613
:1050D00001F08CFC002038BD10B5044631B91346F0
:1050E000D0F8F421032A0DD0002010BDD0F81432DE
:1050F0009B69002BF8D090F8FC21032AF4D1984743
:10510000002010BDD0E9431291420DD8D0F81432DE
:105110001B6923B190F8FC21032A00D1984720464F
:10512000FCF7F8FF002010BD891A8A4228BF0A4602
:10513000C0F80C1192B21946FCF7E4FFD4E700BFA7
:1051400070B5044651B91346D0F8F421022A16D09E
:1051500094F80032012B0DD0002070BDD0F814322D
:105160005B69002BF8D090F8FC21032AF4D1984712
:10517000002070BD002384F80032002070BDD0E90B
:105180000762964221D88369B3FBF2F502FB15351D
:105190005DB99A4209D8D0F8F821934205D22A463F
:1051A000FCF79AFFC4F8F85116E0D4F81432DB6823
:1051B0001BB194F8FC21032A15D02046FCF7B6FF5A
:1051C00094F80032012BC7D1D4E7B21A0D46C26160
:1051D000194692B2FCF780FF2B462A462946204604
:1051E000FFF7D0FBB4E720469847E6E738B5002242
:1051F0000446402511462B46FFF75AFB2B4600225A
:10520000C4F8105180212046FFF752FBD4F8183221
:105210002562012284F8FC212BB1D4F814322179C3
:105220005B6820469847002038BD00BF017400200D
:10523000704700BF90F8FC2180F8FD21042380F81E
:10524000FC310020704700BF0346002093F8FD2189
:1052500083F8FC21704700BF90F8FC21032A01D09D
:105260000020704708B5D0F81432DB6903B19847C5
:10527000002008BD002070470020704700207047C4
:1052800008B5D0F81422012180F8FC115268017988
:105290009047002008BD00BF38B5044601F01CFD52
:1052A000002C67D023680222002184F8341084F88F
:1052B00035201A6822F0010205461A6005E001F067
:1052C0000BFD431B052B39D823681A68D107F6D488
:1052D000D4E90120E16802430A43D4E90451A069FA
:1052E0002A430A43E1691D6802430A4333492940BE
:1052F000256A2A430A43616A042926D01A605A693A
:1053000022F007021143D8B22D4A59611038A2FB8E
:10531000005212092B4923F47F73895CE16523F065
:1053200003035F2888BF04333F228A40A36500201F
:105330009A600123606584F8353038BD032320224C
:10534000626584F83530184638BDD4E90B512943DD
:105350000A431A605969A26A21F00701114341F01A
:105360000401002DCFD038B9012A23D032F0020237
:10537000C9D108E0012038BDB0F5005F0CD0022A89
:1053800003D9032ABFD1EA01BDD5012340226265BA
:1053900084F83530184638BD032AB4D801A050F837
:1053A00022F000BF8B530008875300088B5300087E
:1053B000B5530008B5F1C07FA5D1E6E73F8010F0F6
:1053C000ABAAAAAAD09F020800282FD090F83520B7
:1053D000022AD3B22BD00368164AD9B2103930B49E
:1053E000A2FB014212091C68134D24F00104AD5CBC
:1053F0001C6000221A605A609A60DA601A612122E9
:105400005A6123F47F7323F003035F2988BF0433B9
:105410003F210022A940C56583659960426580F8F7
:10542000342080F8352030BC1046704701231846E0
:10543000704700BFABAAAAAAD09F020870B490F828
:105440003440856D012C39D090F835404FF0010C77
:10545000644580F834C005D0002380F8343070BC37
:1054600002207047022680F83560046800264665F1
:10547000266826F48026266063608368402B0EBF72
:10548000A260A160E260C26D08BFE1603F2393406B
:10549000AB602368026C43F016032360636943F03A
:1054A000800363611AB1236843F008032360236813
:1054B00043F001030020236070BC7047022070BCE1
:1054C000704700BF70B50446866D01F005FC94F886
:1054D0003530022B06D00023802284F834306265F8
:1054E000012070BD23681A6822F016021A605A69FA
:1054F00022F080025A61226C054632B31A6822F00B
:1055000008021A601A6822F001021A6005E001F030
:10551000E3FB431B052B0FD823681B6813F0010323
:10552000F5D1E16D3F228A400121B26084F8343028
:1055300084F83510184670BD0320202200236265D0
:1055400084F8343084F8350070BDA26C002AD5D1BF
:10555000D8E700BF90F83530022B03D08023436595
:10556000012070470268052380F83530136823F066
:1055700001030020136070472DE9F04182B0744AA6
:10558000866D156800230193C36D346808229A4024
:105590002242804604D001680F68780700F18A80B3
:1055A00001229A40224204D0D8F800104969090625
:1055B00078D404229A40224204D0D8F80010096816
:1055C0008F0767D410229A40224204D0D8F80010E6
:1055D0000F68380749D420229A40224217D0D8F8C1
:1055E00000100C68E00612D5B26098F83520052A44
:1055F00073D00B6813F4802F0B6800F090801903B0
:1056000040F19B80D8F83C300BB140469847D8F821
:1056100054303BB3D8F85430DA071BD5D8F8002003
:105620004C49052388F835301368A1FB051523F094
:105630000103AD0A136002E01368DB0704D5019B88
:105640000133AB420193F7D90022012388F83420BB
:1056500088F83530D8F84C3023B1404602B0BDE868
:10566000F041184702B0BDE8F081B2600A6812F458
:10567000802F0A682AD1D70503D40A6822F00802CD
:105680000A60D8F84020002AA5D040469047D8F8B4
:105690005C30A0E7B260D8F8542042F00402C8F8A9
:1056A00054208FE7B260D8F8542042F00202C8F8C4
:1056B00054207EE70F6827F004070F60B260D8F827
:1056C000542042F00102C8F8542069E71203D8D5EB
:1056D000D8F84820002AD8D17DE70A6822F01602BF
:1056E0000A604A6922F080024A61D8F8402052B329
:1056F0000A6822F008020A603F2202FA03F3D8F88F
:105700005010B3600022012388F8342088F8353027
:105710000029A7D0404602B0BDE8F041084713F485
:1057200080737FF46FAF0A6822F010020A600122D2
:1057300088F8343088F8352064E7D8F84430002BF6
:105740007FF463AF63E7D8F84820002AD0D1D3E7CD
:10575000F4010020B5814E1B10B4164B1A461B688D
:105760008342FBD3516802EB010C60450BD04168CA
:1057700000EB010C63450ED0904203605DF8044BD2
:1057800018BF1060704744681046214400EB010CBC
:1057900063455160F0D1084C2468A342ECD0D3E9B2
:1057A000003490422144C0E900315DF8044B18BF39
:1057B00010607047400E0020300E00202DE9F041AF
:1057C000404E044603F0E8FF3368002B57D03E4BB1
:1057D0001D682C422FD174B304F1080160071CBF6F
:1057E00021F00701083131B3DFF8EC80D8F8007000
:1057F0008F4220D33548046803E0236823B1204654
:105800001C4662688A42F8D33368A34213D02368E7
:1058100006680360531A102B06F1080616D96018A3
:1058200042070ED04FF0500383F31188BFF36F8F00
:10583000BFF34F8FFEE704F005F900263046BDE8C0
:10584000F08143606160FFF787FF6268204B196851
:10585000BF1A8F4238BF1F602A430023C4E90032B9
:10586000C8F8007004F0EEF87307E7D04FF050036B
:1058700083F31188BFF36F8FBFF34F8FFEE7154B94
:105880001348114F5D0714BFDA1D1A4603F5803324
:10589000A3F1080323F0070318BF22F00702114603
:1058A0009A1A02600C48094D026000202960686065
:1058B0004FF00045C3E900003360C1E900323D60AC
:1058C00087E700BF300E0020340E0020400E00207D
:1058D0003C0E002000000010380E0020D0B11A4A03
:1058E00050F8043C126813420BD050F8081C91B1D8
:1058F0004FF0500383F31188BFF36F8FBFF34F8FC7
:10590000FEE74FF0500383F31188BFF36F8FBFF3AF
:105910004F8FFEE7704700B523EA020383B040F8DB
:10592000043C019003F038FF084A0198116850F8D0
:10593000043C08380B441360FFF70EFF03B05DF81A
:1059400004EB04F07FB800BF340E0020380E0020B6
:10595000014B1868704700BF3C0E002000207047C4
:1059600008B509681DF080FB002008BD10B50C4C7F
:105970000C4901230022204603F0DCF90A490122E8
:10598000204603F0EBF9032308490022204603F0E8
:10599000D1F907490322204603F0E0F9002010BDA9
:1059A00088120020880E0020480E0020080F0020DA
:1059B000C80E002021280CD100234FF0C20C01207A
:1059C00008220B7081F801C08870CB700B714B718D
:1059D0008A710020704700BF402923D8134B012A49
:1059E00070B5D3F818320D46144618D0032A1BD1CF
:1059F0000F4E5C331B7A83B92A46014630461FF0AE
:105A00001BF9314623462A46084803F093F92146FC
:105A10000648BDE8704003F0B1B9012070BD054EE5
:105A20004433E7E702207047022070BD881200204F
:105A3000080F0020880E0020002868D0F0B503234E
:105A400005468BB0044680F8B933FEF729FE286876
:105A5000FDF70AF854F810EBA446BCE80F006F46B7
:105A60000FC7BCE80F000FC79CE8030087E80300DE
:105A70002E1D96E80E007046FCF794FF0021286862
:105A8000FCF7FAFF00212B462A460127084682F838
:105A90003810D18701310F29C2E9100082F839701E
:105AA00082F83B00D06402F11C02F0D100222F6882
:105AB000114602F1400083F8F821DA8707EB8000F5
:105AC00001320F2AC3E9801183F8F91183F8FB1121
:105AD000C3F80C12416003F11C03EAD10FCCEC4671
